{
  "contractName": "SubdomainStorage",
  "abi": [
    {
      "constant": true,
      "inputs": [],
      "name": "TLD_NODE",
      "outputs": [
        {
          "name": "",
          "type": "bytes32"
        }
      ],
      "payable": false,
      "stateMutability": "view",
      "type": "function"
    },
    {
      "constant": true,
      "inputs": [],
      "name": "GRACE_PERIOD",
      "outputs": [
        {
          "name": "",
          "type": "uint256"
        }
      ],
      "payable": false,
      "stateMutability": "view",
      "type": "function"
    },
    {
      "constant": true,
      "inputs": [
        {
          "name": "",
          "type": "address"
        }
      ],
      "name": "controllers",
      "outputs": [
        {
          "name": "",
          "type": "bool"
        }
      ],
      "payable": false,
      "stateMutability": "view",
      "type": "function"
    },
    {
      "inputs": [],
      "payable": false,
      "stateMutability": "nonpayable",
      "type": "constructor"
    },
    {
      "anonymous": false,
      "inputs": [
        {
          "indexed": true,
          "name": "controller",
          "type": "address"
        }
      ],
      "name": "ControllerAdded",
      "type": "event"
    },
    {
      "anonymous": false,
      "inputs": [
        {
          "indexed": true,
          "name": "controller",
          "type": "address"
        }
      ],
      "name": "ControllerRemoved",
      "type": "event"
    },
    {
      "anonymous": false,
      "inputs": [
        {
          "indexed": true,
          "name": "id",
          "type": "uint256"
        },
        {
          "indexed": false,
          "name": "expires",
          "type": "uint256"
        },
        {
          "indexed": false,
          "name": "url",
          "type": "string"
        }
      ],
      "name": "NameRegistered",
      "type": "event"
    },
    {
      "anonymous": false,
      "inputs": [
        {
          "indexed": true,
          "name": "id",
          "type": "uint256"
        },
        {
          "indexed": false,
          "name": "expires",
          "type": "uint256"
        }
      ],
      "name": "NameRenewed",
      "type": "event"
    },
    {
      "constant": false,
      "inputs": [
        {
          "name": "controller",
          "type": "address"
        }
      ],
      "name": "addController",
      "outputs": [],
      "payable": false,
      "stateMutability": "nonpayable",
      "type": "function"
    },
    {
      "constant": false,
      "inputs": [
        {
          "name": "controller",
          "type": "address"
        }
      ],
      "name": "removeController",
      "outputs": [],
      "payable": false,
      "stateMutability": "nonpayable",
      "type": "function"
    },
    {
      "constant": true,
      "inputs": [
        {
          "name": "id",
          "type": "uint256"
        }
      ],
      "name": "nameExpires",
      "outputs": [
        {
          "name": "",
          "type": "uint256"
        }
      ],
      "payable": false,
      "stateMutability": "view",
      "type": "function"
    },
    {
      "constant": true,
      "inputs": [
        {
          "name": "id",
          "type": "uint256"
        }
      ],
      "name": "available",
      "outputs": [
        {
          "name": "",
          "type": "bool"
        }
      ],
      "payable": false,
      "stateMutability": "view",
      "type": "function"
    },
    {
      "constant": true,
      "inputs": [
        {
          "name": "id",
          "type": "uint256"
        }
      ],
      "name": "notExpire",
      "outputs": [
        {
          "name": "",
          "type": "bool"
        }
      ],
      "payable": false,
      "stateMutability": "view",
      "type": "function"
    },
    {
      "constant": true,
      "inputs": [
        {
          "name": "node",
          "type": "bytes32"
        }
      ],
      "name": "twitter",
      "outputs": [
        {
          "name": "",
          "type": "string"
        }
      ],
      "payable": false,
      "stateMutability": "view",
      "type": "function"
    },
    {
      "constant": false,
      "inputs": [
        {
          "name": "node",
          "type": "bytes32"
        },
        {
          "name": "_tokenURI",
          "type": "string"
        }
      ],
      "name": "_setTwitterURI",
      "outputs": [],
      "payable": false,
      "stateMutability": "nonpayable",
      "type": "function"
    },
    {
      "constant": false,
      "inputs": [
        {
          "name": "tokenId",
          "type": "uint256"
        },
        {
          "name": "duration",
          "type": "uint256"
        },
        {
          "name": "_tokenURI",
          "type": "string"
        }
      ],
      "name": "doRegistration",
      "outputs": [
        {
          "name": "",
          "type": "uint256"
        }
      ],
      "payable": false,
      "stateMutability": "nonpayable",
      "type": "function"
    },
    {
      "constant": false,
      "inputs": [
        {
          "name": "node",
          "type": "bytes32"
        },
        {
          "name": "duration",
          "type": "uint256"
        }
      ],
      "name": "renew",
      "outputs": [
        {
          "name": "expire",
          "type": "uint256"
        }
      ],
      "payable": false,
      "stateMutability": "nonpayable",
      "type": "function"
    },
    {
      "constant": false,
      "inputs": [
        {
          "name": "duration",
          "type": "uint256"
        }
      ],
      "name": "setGracePeriod",
      "outputs": [],
      "payable": false,
      "stateMutability": "nonpayable",
      "type": "function"
    },
    {
      "constant": false,
      "inputs": [
        {
          "name": "newOwner",
          "type": "address"
        }
      ],
      "name": "transferOwnership",
      "outputs": [],
      "payable": false,
      "stateMutability": "nonpayable",
      "type": "function"
    }
  ],
  "bytecode": "0x60806040526276a70060005534801561001757600080fd5b5033600160006101000a81548173ffffffffffffffffffffffffffffffffffffffff021916908373ffffffffffffffffffffffffffffffffffffffff160217905550610e34806100686000396000f3fe6080604052600436106100d0576000357c0100000000000000000000000000000000000000000000000000000000900463ffffffff1680630c113f84146100d557806379f13032146101655780639686b187146101b857806396df35401461026c57806396e494e814610297578063a7fc7a07146102ea578063c1a287e21461033b578063d6e4fa8614610366578063da8c229e146103b5578063f2f659601461041e578063f2fde38b14610459578063f544d82f146104aa578063f6a74ed714610503578063f9aaa62214610554575b600080fd5b3480156100e157600080fd5b50610163600480360360408110156100f857600080fd5b81019080803590602001909291908035906020019064010000000081111561011f57600080fd5b82018360208201111561013157600080fd5b8035906020019184600183028401116401000000008311171561015357600080fd5b9091929391929390505050610602565b005b34801561017157600080fd5b5061019e6004803603602081101561018857600080fd5b81019080803590602001909291905050506106a0565b604051808215151515815260200191505060405180910390f35b3480156101c457600080fd5b506101f1600480360360208110156101db57600080fd5b81019080803590602001909291905050506106bf565b6040518080602001828103825283818151815260200191508051906020019080838360005b83811015610231578082015181840152602081019050610216565b50505050905090810190601f16801561025e5780820380516001836020036101000a031916815260200191505b509250505060405180910390f35b34801561027857600080fd5b50610281610784565b6040518082815260200191505060405180910390f35b3480156102a357600080fd5b506102d0600480360360208110156102ba57600080fd5b81019080803590602001909291905050506107ab565b604051808215151515815260200191505060405180910390f35b3480156102f657600080fd5b506103396004803603602081101561030d57600080fd5b81019080803573ffffffffffffffffffffffffffffffffffffffff1690602001909291905050506107ce565b005b34801561034757600080fd5b506103506108c8565b6040518082815260200191505060405180910390f35b34801561037257600080fd5b5061039f6004803603602081101561038957600080fd5b81019080803590602001909291905050506108ce565b6040518082815260200191505060405180910390f35b3480156103c157600080fd5b50610404600480360360208110156103d857600080fd5b81019080803573ffffffffffffffffffffffffffffffffffffffff1690602001909291905050506108eb565b604051808215151515815260200191505060405180910390f35b34801561042a57600080fd5b506104576004803603602081101561044157600080fd5b810190808035906020019092919050505061090b565b005b34801561046557600080fd5b506104a86004803603602081101561047c57600080fd5b81019080803573ffffffffffffffffffffffffffffffffffffffff169060200190929190505050610971565b005b3480156104b657600080fd5b506104ed600480360360408110156104cd57600080fd5b810190808035906020019092919080359060200190929190505050610a11565b6040518082815260200191505060405180910390f35b34801561050f57600080fd5b506105526004803603602081101561052657600080fd5b81019080803573ffffffffffffffffffffffffffffffffffffffff169060200190929190505050610b09565b005b34801561056057600080fd5b506105ec6004803603606081101561057757600080fd5b810190808035906020019092919080359060200190929190803590602001906401000000008111156105a857600080fd5b8201836020820111156105ba57600080fd5b803590602001918460018302840111640100000000831117156105dc57600080fd5b9091929391929390505050610c03565b6040518082815260200191505060405180910390f35b600460003373ffffffffffffffffffffffffffffffffffffffff1673ffffffffffffffffffffffffffffffffffffffff16815260200190815260200160002060009054906101000a900460ff16151561065a57600080fd5b60008360019004905061066c816106a0565b151561067757600080fd5b8282600360008481526020019081526020016000209190610699929190610d63565b5050505050565b6000426002600084815260200190815260200160002054119050919050565b60606000826001900490506060600360008381526020019081526020016000208054600181600116156101000203166002900480601f0160208091040260200160405190810160405280929190818152602001828054600181600116156101000203166002900480156107735780601f1061074857610100808354040283529160200191610773565b820191906000526020600020905b81548152906001019060200180831161075657829003601f168201915b505050505090508092505050919050565b7f30f9ae3b1c4766476d11e2bacd21f9dff2c59670d8b8a74a88ebc22aec7020b960010281565b600042600054600260008581526020019081526020016000205401109050919050565b600160009054906101000a900473ffffffffffffffffffffffffffffffffffffffff1673ffffffffffffffffffffffffffffffffffffffff163373ffffffffffffffffffffffffffffffffffffffff1614151561082a57600080fd5b6001600460008373ffffffffffffffffffffffffffffffffffffffff1673ffffffffffffffffffffffffffffffffffffffff16815260200190815260200160002060006101000a81548160ff0219169083151502179055508073ffffffffffffffffffffffffffffffffffffffff167f0a8bb31534c0ed46f380cb867bd5c803a189ced9a764e30b3a4991a9901d747460405160405180910390a250565b60005481565b600060026000838152602001908152602001600020549050919050565b60046020528060005260406000206000915054906101000a900460ff1681565b600160009054906101000a900473ffffffffffffffffffffffffffffffffffffffff1673ffffffffffffffffffffffffffffffffffffffff163373ffffffffffffffffffffffffffffffffffffffff1614151561096757600080fd5b8060008190555050565b600160009054906101000a900473ffffffffffffffffffffffffffffffffffffffff1673ffffffffffffffffffffffffffffffffffffffff163373ffffffffffffffffffffffffffffffffffffffff161415156109cd57600080fd5b80600160006101000a81548173ffffffffffffffffffffffffffffffffffffffff021916908373ffffffffffffffffffffffffffffffffffffffff16021790555050565b6000600460003373ffffffffffffffffffffffffffffffffffffffff1673ffffffffffffffffffffffffffffffffffffffff16815260200190815260200160002060009054906101000a900460ff161515610a6b57600080fd5b600083600190049050826002600083815260200190815260200160002054016002600083815260200190815260200160002081905550807f9b87a00e30f1ac65d898f070f8a3488fe60517182d0a2098e1b4b93a54aa9bd660026000848152602001908152602001600020546040518082815260200191505060405180910390a2600260008281526020019081526020016000205491505092915050565b600160009054906101000a900473ffffffffffffffffffffffffffffffffffffffff1673ffffffffffffffffffffffffffffffffffffffff163373ffffffffffffffffffffffffffffffffffffffff16141515610b6557600080fd5b6000600460008373ffffffffffffffffffffffffffffffffffffffff1673ffffffffffffffffffffffffffffffffffffffff16815260200190815260200160002060006101000a81548160ff0219169083151502179055508073ffffffffffffffffffffffffffffffffffffffff167f33d83959be2573f5453b12eb9d43b3499bc57d96bd2f067ba44803c859e8111360405160405180910390a250565b6000600460003373ffffffffffffffffffffffffffffffffffffffff1673ffffffffffffffffffffffffffffffffffffffff16815260200190815260200160002060009054906101000a900460ff161515610c5d57600080fd5b610c66856107ab565b1515610c7157600080fd5b600054420160005485420101111515610c8957600080fd5b83420160026000878152602001908152602001600020819055508282600360008881526020019081526020016000209190610cc5929190610d63565b50847f8f081e5c76dcaed8ec11d32367868b1dd248bf788cc223ef85a84c22f6a5888b6002600088815260200190815260200160002054858560405180848152602001806020018281038252848482818152602001925080828437600081840152601f19601f82011690508083019250505094505050505060405180910390a260026000868152602001908152602001600020549050949350505050565b828054600181600116156101000203166002900490600052602060002090601f016020900481019282601f10610da457803560ff1916838001178555610dd2565b82800160010185558215610dd2579182015b82811115610dd1578235825591602001919060010190610db6565b5b509050610ddf9190610de3565b5090565b610e0591905b80821115610e01576000816000905550600101610de9565b5090565b9056fea165627a7a723058205fc78a7d72316dcccb9c360355bea2c29b2e4ac76e5fc5d4ed28dce4fa2bd4fa0029",
  "source": "pragma solidity ^0.5.0;\n\nimport \"@ensdomains/ethregistrar/contracts/BaseRegistrar.sol\";\nimport \"@ensdomains/ens/contracts/ENS.sol\";\n// import \"@ensdomains/ens-contracts/contracts/registry/ENS.sol\";\n// import \"@ensdomains/ens-contracts/contracts/ethregistrar/BaseRegistrar.sol\";\nimport \"./Resolver.sol\";\nimport \"./RegistrarInterface.sol\";\n\ncontract SubdomainStorage {\n  // namehash('one')\n  bytes32\n    public constant TLD_NODE = 0x30f9ae3b1c4766476d11e2bacd21f9dff2c59670d8b8a74a88ebc22aec7020b9;\n\n  uint256 public GRACE_PERIOD = 90 days;\n\n  address registrarOwner;\n\n  event ControllerAdded(address indexed controller);\n  event ControllerRemoved(address indexed controller);\n\n  // A map of expiry times\n  mapping(uint256 => uint256) expiries;\n  // mapping for token URIs\n  mapping(uint256 => string) private _tokenURIs;\n\n  event NameRegistered(uint256 indexed id, uint256 expires, string url);\n  event NameRenewed(uint256 indexed id, uint256 expires);\n\n  constructor() public {\n    registrarOwner = msg.sender;\n  }\n\n  // A map of addresses that are authorised to register and renew names.\n  mapping(address => bool) public controllers;\n\n  // Authorises a controller, who can register and renew domains.\n  function addController(address controller) external registrar_owner_only {\n    controllers[controller] = true;\n    emit ControllerAdded(controller);\n  }\n\n  // Revoke controller permission for an address.\n  function removeController(address controller) external registrar_owner_only {\n    controllers[controller] = false;\n    emit ControllerRemoved(controller);\n  }\n\n  modifier onlyController {\n    require(controllers[msg.sender]);\n    _;\n  }\n\n  modifier registrar_owner_only() {\n    require(msg.sender == registrarOwner);\n    _;\n  }\n\n  // Returns the expiration timestamp of the specified id.\n  function nameExpires(uint256 id) public view returns (uint256) {\n    return expiries[id];\n  }\n\n  // Returns true iff the specified name is available for registration.\n  function available(uint256 id) public view returns (bool) {\n    // Not available if it's registered here or in its grace period.\n    return expiries[id] + GRACE_PERIOD < now;\n  }\n\n  function notExpire(uint256 id) public view returns (bool) {\n    return expiries[id] > now;\n  }\n\n  function twitter(bytes32 node) public view returns (string memory) {\n    uint256 tokenId = uint256(node);\n\n    string memory _twitterURI = _tokenURIs[tokenId];\n\n    return _twitterURI;\n  }\n\n  function _setTwitterURI(bytes32 node, string calldata _tokenURI)\n    external\n    onlyController\n  {\n    uint256 tokenId = uint256(node);\n\n    require(notExpire(tokenId));\n\n    _tokenURIs[tokenId] = _tokenURI;\n  }\n\n  function doRegistration(\n    uint256 tokenId,\n    uint256 duration,\n    string calldata _tokenURI\n  ) external onlyController returns (uint256) {\n    require(available(tokenId));\n    require(now + duration + GRACE_PERIOD > now + GRACE_PERIOD); // Prevent future overflow\n\n    expiries[tokenId] = now + duration;\n    _tokenURIs[tokenId] = _tokenURI;\n\n    emit NameRegistered(tokenId, expiries[tokenId], _tokenURI);\n\n    return expiries[tokenId];\n  }\n\n  function renew(bytes32 node, uint256 duration)\n    external\n    onlyController\n    returns (uint256 expire)\n  {\n    uint256 tokenId = uint256(node);\n\n    expiries[tokenId] = expiries[tokenId] + duration;\n\n    emit NameRenewed(tokenId, expiries[tokenId]);\n\n    return expiries[tokenId];\n  }\n\n  function setGracePeriod(uint256 duration) public registrar_owner_only {\n    GRACE_PERIOD = duration;\n  }\n\n  function transferOwnership(address newOwner) public registrar_owner_only {\n    registrarOwner = newOwner;\n  }\n}\n",
  "sourcePath": "/Users/okudajunta/Desktop/nobank/subdomain-registrar/contracts/SubdomainStorage.sol",
  "compiler": {
    "name": "solc",
    "version": "0.5.0+commit.1d4f565a.Emscripten.clang"
  },
  "schemaVersion": "3.4.3",
  "updatedAt": "2021-12-09T04:57:01.417Z",
  "networkType": "ethereum",
  "devdoc": {
    "methods": {}
  },
  "userdoc": {
    "methods": {}
  }
}